from unittest import TestCase
from io import BytesIO
from binascii import unhexlify

from bitcoin.tx import Tx, TxIn, TxOut
from bitcoin.ecc import PrivateKey
from bitcoin.script import Script
from bitcoin.helper import encode_varint

from tests.data import fetch_tx


class TxTest(TestCase):

    def test_parse_version(self):
        raw_tx = unhexlify('0100000001813f79011acb80925dfe69b3def355fe914bd1d96a3f5f71bf8303c6a989c7d1000000006b483045022100ed81ff192e75a3fd2304004dcadb746fa5e24c5031ccfcf21320b0277457c98f02207a986d955c6e0cb35d446a89d3f56100f4d7f67801c31967743a9c8e10615bed01210349fc4e631e3624a545de3f89f5d8684c7b8138bd94bdd531d2e213bf016b278afeffffff02a135ef01000000001976a914bc3b654dca7e56b04dca18f2566cdaf02e8d9ada88ac99c39800000000001976a9141c4bc762dd5423e332166702cb75f40df79fea1288ac19430600')
        stream = BytesIO(raw_tx)
        tx = Tx.parse(stream)
        self.assertEqual(tx.version, 1)

    def test_parse_inputs(self):
        raw_tx = unhexlify('0100000001813f79011acb80925dfe69b3def355fe914bd1d96a3f5f71bf8303c6a989c7d1000000006b483045022100ed81ff192e75a3fd2304004dcadb746fa5e24c5031ccfcf21320b0277457c98f02207a986d955c6e0cb35d446a89d3f56100f4d7f67801c31967743a9c8e10615bed01210349fc4e631e3624a545de3f89f5d8684c7b8138bd94bdd531d2e213bf016b278afeffffff02a135ef01000000001976a914bc3b654dca7e56b04dca18f2566cdaf02e8d9ada88ac99c39800000000001976a9141c4bc762dd5423e332166702cb75f40df79fea1288ac19430600')
        stream = BytesIO(raw_tx)
        tx = Tx.parse(stream)
        self.assertEqual(len(tx.tx_ins), 1)
        want = unhexlify('d1c789a9c60383bf715f3f6ad9d14b91fe55f3deb369fe5d9280cb1a01793f81')
        self.assertEqual(tx.tx_ins[0].prev_tx, want)
        self.assertEqual(tx.tx_ins[0].prev_index, 0)
        want = unhexlify('6b483045022100ed81ff192e75a3fd2304004dcadb746fa5e24c5031ccfcf21320b0277457c98f02207a986d955c6e0cb35d446a89d3f56100f4d7f67801c31967743a9c8e10615bed01210349fc4e631e3624a545de3f89f5d8684c7b8138bd94bdd531d2e213bf016b278a')
        self.assertEqual(tx.tx_ins[0].script_sig.serialize(), want)
        self.assertEqual(tx.tx_ins[0].sequence, 0xfffffffe)

    def test_parse_outputs(self):
        raw_tx = unhexlify('0100000001813f79011acb80925dfe69b3def355fe914bd1d96a3f5f71bf8303c6a989c7d1000000006b483045022100ed81ff192e75a3fd2304004dcadb746fa5e24c5031ccfcf21320b0277457c98f02207a986d955c6e0cb35d446a89d3f56100f4d7f67801c31967743a9c8e10615bed01210349fc4e631e3624a545de3f89f5d8684c7b8138bd94bdd531d2e213bf016b278afeffffff02a135ef01000000001976a914bc3b654dca7e56b04dca18f2566cdaf02e8d9ada88ac99c39800000000001976a9141c4bc762dd5423e332166702cb75f40df79fea1288ac19430600')
        stream = BytesIO(raw_tx)
        tx = Tx.parse(stream)
        self.assertEqual(len(tx.tx_outs), 2)
        want = 32454049
        self.assertEqual(tx.tx_outs[0].amount, want)
        want = unhexlify('1976a914bc3b654dca7e56b04dca18f2566cdaf02e8d9ada88ac')
        self.assertEqual(tx.tx_outs[0].script_pubkey.serialize(), want)
        want = 10011545
        self.assertEqual(tx.tx_outs[1].amount, want)
        want = unhexlify('1976a9141c4bc762dd5423e332166702cb75f40df79fea1288ac')
        self.assertEqual(tx.tx_outs[1].script_pubkey.serialize(), want)

    def test_parse_locktime(self):
        raw_tx = unhexlify('0100000001813f79011acb80925dfe69b3def355fe914bd1d96a3f5f71bf8303c6a989c7d1000000006b483045022100ed81ff192e75a3fd2304004dcadb746fa5e24c5031ccfcf21320b0277457c98f02207a986d955c6e0cb35d446a89d3f56100f4d7f67801c31967743a9c8e10615bed01210349fc4e631e3624a545de3f89f5d8684c7b8138bd94bdd531d2e213bf016b278afeffffff02a135ef01000000001976a914bc3b654dca7e56b04dca18f2566cdaf02e8d9ada88ac99c39800000000001976a9141c4bc762dd5423e332166702cb75f40df79fea1288ac19430600')
        stream = BytesIO(raw_tx)
        tx = Tx.parse(stream)
        self.assertEqual(tx.locktime, 410393)

    def test_serialize(self):
        raw_tx = unhexlify('0100000001813f79011acb80925dfe69b3def355fe914bd1d96a3f5f71bf8303c6a989c7d1000000006b483045022100ed81ff192e75a3fd2304004dcadb746fa5e24c5031ccfcf21320b0277457c98f02207a986d955c6e0cb35d446a89d3f56100f4d7f67801c31967743a9c8e10615bed01210349fc4e631e3624a545de3f89f5d8684c7b8138bd94bdd531d2e213bf016b278afeffffff02a135ef01000000001976a914bc3b654dca7e56b04dca18f2566cdaf02e8d9ada88ac99c39800000000001976a9141c4bc762dd5423e332166702cb75f40df79fea1288ac19430600')
        stream = BytesIO(raw_tx)
        tx = Tx.parse(stream)
        self.assertEqual(tx.serialize(), raw_tx)

    def test_sig_hash_p2pkh(self):
        tx = fetch_tx('452c629d67e41baec3ac6f04fe744b4b9617f8f859c63b3002f8684e7a4fee03')

        raw_script_pubkey = unhexlify('1976a914a802fc56c704ce87c42d7c92eb75e7896bdc41ae88ac')
        script_pubkey = Script.parse(BytesIO(raw_script_pubkey))
        want = int('27e0c5994dec7824e56dec6b2fcb342eb7cdb0d0957c2fce9882f715e85d81a6', 16)
        self.assertEqual(tx.sig_hash(0, script_pubkey=script_pubkey), want)

    def test_sig_hash_p2sh(self):
        want = 104533698797560496821845132535319230899254894228014507304915351202849162871356
        raw_redeem_script = unhexlify("475221022626e955ea6ea6d98850c994f9107b036b1334f18ca8830bfff1295d21cfdb702103b287eaf122eea69030a0e9feed096bed8045c8b98bec453e1ffac7fbdbd4bb7152ae")
        redeem_script = Script.parse(BytesIO(raw_redeem_script))
        tx = fetch_tx('46df1a9484d0a81d03ce0ee543ab6e1a23ed06175c104a178268fad381216c2b')
        sig_hash = tx.sig_hash(0, redeem_script=redeem_script)
        self.assertEqual(sig_hash, want)

    def test_sign_input(self):
        # FIXME: How can we test stuff like this without a script interpreter
        # in the library? Call out to bitcoind somehow?
        raise NotImplementedError()

